{
  "_format": "hh-sol-artifact-1",
  "contractName": "MyEpicNFT",
  "sourceName": "contracts/MyEpicNFT.sol",
  "abi": [
    {
      "inputs": [],
      "stateMutability": "nonpayable",
      "type": "constructor"
    },
    {
      "anonymous": false,
      "inputs": [
        {
          "indexed": true,
          "internalType": "address",
          "name": "owner",
          "type": "address"
        },
        {
          "indexed": true,
          "internalType": "address",
          "name": "approved",
          "type": "address"
        },
        {
          "indexed": true,
          "internalType": "uint256",
          "name": "tokenId",
          "type": "uint256"
        }
      ],
      "name": "Approval",
      "type": "event"
    },
    {
      "anonymous": false,
      "inputs": [
        {
          "indexed": true,
          "internalType": "address",
          "name": "owner",
          "type": "address"
        },
        {
          "indexed": true,
          "internalType": "address",
          "name": "operator",
          "type": "address"
        },
        {
          "indexed": false,
          "internalType": "bool",
          "name": "approved",
          "type": "bool"
        }
      ],
      "name": "ApprovalForAll",
      "type": "event"
    },
    {
      "anonymous": false,
      "inputs": [
        {
          "indexed": false,
          "internalType": "address",
          "name": "sender",
          "type": "address"
        },
        {
          "indexed": false,
          "internalType": "uint256",
          "name": "tokenId",
          "type": "uint256"
        }
      ],
      "name": "NewEpicNFTMinted",
      "type": "event"
    },
    {
      "anonymous": false,
      "inputs": [
        {
          "indexed": true,
          "internalType": "address",
          "name": "from",
          "type": "address"
        },
        {
          "indexed": true,
          "internalType": "address",
          "name": "to",
          "type": "address"
        },
        {
          "indexed": true,
          "internalType": "uint256",
          "name": "tokenId",
          "type": "uint256"
        }
      ],
      "name": "Transfer",
      "type": "event"
    },
    {
      "inputs": [
        {
          "internalType": "address",
          "name": "to",
          "type": "address"
        },
        {
          "internalType": "uint256",
          "name": "tokenId",
          "type": "uint256"
        }
      ],
      "name": "approve",
      "outputs": [],
      "stateMutability": "nonpayable",
      "type": "function"
    },
    {
      "inputs": [
        {
          "internalType": "address",
          "name": "owner",
          "type": "address"
        }
      ],
      "name": "balanceOf",
      "outputs": [
        {
          "internalType": "uint256",
          "name": "",
          "type": "uint256"
        }
      ],
      "stateMutability": "view",
      "type": "function"
    },
    {
      "inputs": [
        {
          "internalType": "uint256",
          "name": "tokenId",
          "type": "uint256"
        }
      ],
      "name": "getApproved",
      "outputs": [
        {
          "internalType": "address",
          "name": "",
          "type": "address"
        }
      ],
      "stateMutability": "view",
      "type": "function"
    },
    {
      "inputs": [],
      "name": "getTotalNFTsMintedSoFar",
      "outputs": [
        {
          "internalType": "uint256",
          "name": "",
          "type": "uint256"
        }
      ],
      "stateMutability": "view",
      "type": "function"
    },
    {
      "inputs": [
        {
          "internalType": "address",
          "name": "owner",
          "type": "address"
        },
        {
          "internalType": "address",
          "name": "operator",
          "type": "address"
        }
      ],
      "name": "isApprovedForAll",
      "outputs": [
        {
          "internalType": "bool",
          "name": "",
          "type": "bool"
        }
      ],
      "stateMutability": "view",
      "type": "function"
    },
    {
      "inputs": [],
      "name": "makeAnEpicNFT",
      "outputs": [],
      "stateMutability": "nonpayable",
      "type": "function"
    },
    {
      "inputs": [],
      "name": "name",
      "outputs": [
        {
          "internalType": "string",
          "name": "",
          "type": "string"
        }
      ],
      "stateMutability": "view",
      "type": "function"
    },
    {
      "inputs": [
        {
          "internalType": "uint256",
          "name": "tokenId",
          "type": "uint256"
        }
      ],
      "name": "ownerOf",
      "outputs": [
        {
          "internalType": "address",
          "name": "",
          "type": "address"
        }
      ],
      "stateMutability": "view",
      "type": "function"
    },
    {
      "inputs": [
        {
          "internalType": "uint256",
          "name": "tokenId",
          "type": "uint256"
        }
      ],
      "name": "pickRandomColor",
      "outputs": [
        {
          "internalType": "string",
          "name": "",
          "type": "string"
        }
      ],
      "stateMutability": "view",
      "type": "function"
    },
    {
      "inputs": [
        {
          "internalType": "uint256",
          "name": "tokenId",
          "type": "uint256"
        }
      ],
      "name": "pickRandomFirstWord",
      "outputs": [
        {
          "internalType": "string",
          "name": "",
          "type": "string"
        }
      ],
      "stateMutability": "view",
      "type": "function"
    },
    {
      "inputs": [
        {
          "internalType": "uint256",
          "name": "tokenId",
          "type": "uint256"
        }
      ],
      "name": "pickRandomSecondWord",
      "outputs": [
        {
          "internalType": "string",
          "name": "",
          "type": "string"
        }
      ],
      "stateMutability": "view",
      "type": "function"
    },
    {
      "inputs": [
        {
          "internalType": "uint256",
          "name": "tokenId",
          "type": "uint256"
        }
      ],
      "name": "pickRandomThirdWord",
      "outputs": [
        {
          "internalType": "string",
          "name": "",
          "type": "string"
        }
      ],
      "stateMutability": "view",
      "type": "function"
    },
    {
      "inputs": [
        {
          "internalType": "address",
          "name": "from",
          "type": "address"
        },
        {
          "internalType": "address",
          "name": "to",
          "type": "address"
        },
        {
          "internalType": "uint256",
          "name": "tokenId",
          "type": "uint256"
        }
      ],
      "name": "safeTransferFrom",
      "outputs": [],
      "stateMutability": "nonpayable",
      "type": "function"
    },
    {
      "inputs": [
        {
          "internalType": "address",
          "name": "from",
          "type": "address"
        },
        {
          "internalType": "address",
          "name": "to",
          "type": "address"
        },
        {
          "internalType": "uint256",
          "name": "tokenId",
          "type": "uint256"
        },
        {
          "internalType": "bytes",
          "name": "_data",
          "type": "bytes"
        }
      ],
      "name": "safeTransferFrom",
      "outputs": [],
      "stateMutability": "nonpayable",
      "type": "function"
    },
    {
      "inputs": [
        {
          "internalType": "address",
          "name": "operator",
          "type": "address"
        },
        {
          "internalType": "bool",
          "name": "approved",
          "type": "bool"
        }
      ],
      "name": "setApprovalForAll",
      "outputs": [],
      "stateMutability": "nonpayable",
      "type": "function"
    },
    {
      "inputs": [
        {
          "internalType": "bytes4",
          "name": "interfaceId",
          "type": "bytes4"
        }
      ],
      "name": "supportsInterface",
      "outputs": [
        {
          "internalType": "bool",
          "name": "",
          "type": "bool"
        }
      ],
      "stateMutability": "view",
      "type": "function"
    },
    {
      "inputs": [],
      "name": "symbol",
      "outputs": [
        {
          "internalType": "string",
          "name": "",
          "type": "string"
        }
      ],
      "stateMutability": "view",
      "type": "function"
    },
    {
      "inputs": [
        {
          "internalType": "uint256",
          "name": "tokenId",
          "type": "uint256"
        }
      ],
      "name": "tokenURI",
      "outputs": [
        {
          "internalType": "string",
          "name": "",
          "type": "string"
        }
      ],
      "stateMutability": "view",
      "type": "function"
    },
    {
      "inputs": [],
      "name": "totalSupply",
      "outputs": [
        {
          "internalType": "uint256",
          "name": "",
          "type": "uint256"
        }
      ],
      "stateMutability": "view",
      "type": "function"
    },
    {
      "inputs": [
        {
          "internalType": "address",
          "name": "from",
          "type": "address"
        },
        {
          "internalType": "address",
          "name": "to",
          "type": "address"
        },
        {
          "internalType": "uint256",
          "name": "tokenId",
          "type": "uint256"
        }
      ],
      "name": "transferFrom",
      "outputs": [],
      "stateMutability": "nonpayable",
      "type": "function"
    }
  ],
  "bytecode": "0x608060405260405180610100016040528060d3815260200162004c3b60d39139600990805190602001906200003692919062000af3565b5060405180608001604052806056815260200162004d0e60569139600a90805190602001906200006892919062000af3565b506040518061014001604052806040518060400160405280600581526020017f477265656e00000000000000000000000000000000000000000000000000000081525081526020016040518060400160405280600481526020017f426c75650000000000000000000000000000000000000000000000000000000081525081526020016040518060400160405280600681526020017f59656c6c6f77000000000000000000000000000000000000000000000000000081525081526020016040518060400160405280600481526020017f476f6c640000000000000000000000000000000000000000000000000000000081525081526020016040518060400160405280600381526020017f526564000000000000000000000000000000000000000000000000000000000081525081526020016040518060400160405280600681526020017f507572706c65000000000000000000000000000000000000000000000000000081525081526020016040518060400160405280600681526020017f4f72616e6765000000000000000000000000000000000000000000000000000081525081526020016040518060400160405280600581526020017f426c61636b00000000000000000000000000000000000000000000000000000081525081526020016040518060400160405280600581526020017f576869746500000000000000000000000000000000000000000000000000000081525081526020016040518060400160405280600481526020017f4772657900000000000000000000000000000000000000000000000000000000815250815250600b90600a620002d392919062000b84565b506040518061014001604052806040518060400160405280600581526020017f50616e646100000000000000000000000000000000000000000000000000000081525081526020016040518060400160405280600681526020017f547572746c65000000000000000000000000000000000000000000000000000081525081526020016040518060400160405280600481526020017f426561720000000000000000000000000000000000000000000000000000000081525081526020016040518060400160405280600581526020017f486f72736500000000000000000000000000000000000000000000000000000081525081526020016040518060400160405280600581526020017f4561676c6500000000000000000000000000000000000000000000000000000081525081526020016040518060400160405280600781526020017f50656e6775696e0000000000000000000000000000000000000000000000000081525081526020016040518060400160405280600981526020017f436c6f776e66697368000000000000000000000000000000000000000000000081525081526020016040518060400160405280600881526020017f456c657068616e7400000000000000000000000000000000000000000000000081525081526020016040518060400160405280600981526020017f41726d6164696c6c6f000000000000000000000000000000000000000000000081525081526020016040518060400160405280600681526020017f5261636f6f6e0000000000000000000000000000000000000000000000000000815250815250600c90600a6200053e92919062000b84565b506040518061014001604052806040518060400160405280600381526020017f466c79000000000000000000000000000000000000000000000000000000000081525081526020016040518060400160405280600481526020017f5377696d0000000000000000000000000000000000000000000000000000000081525081526020016040518060400160405280600581526020017f437261776c00000000000000000000000000000000000000000000000000000081525081526020016040518060400160405280600781526020017f536e7567676c650000000000000000000000000000000000000000000000000081525081526020016040518060400160405280600481526020017f526163650000000000000000000000000000000000000000000000000000000081525081526020016040518060400160405280600481526020017f4a756d700000000000000000000000000000000000000000000000000000000081525081526020016040518060400160405280600581526020017f536c65657000000000000000000000000000000000000000000000000000000081525081526020016040518060400160405280600481526020017f426974650000000000000000000000000000000000000000000000000000000081525081526020016040518060400160405280600381526020017f446967000000000000000000000000000000000000000000000000000000000081525081526020016040518060400160405280600681526020017f437564646c650000000000000000000000000000000000000000000000000000815250815250600d90600a620007a992919062000b84565b506040518060c001604052806040518060400160405280600381526020017f726564000000000000000000000000000000000000000000000000000000000081525081526020016040518060400160405280600781526020017f233038433241380000000000000000000000000000000000000000000000000081525081526020016040518060400160405280600581526020017f626c61636b00000000000000000000000000000000000000000000000000000081525081526020016040518060400160405280600681526020017f79656c6c6f77000000000000000000000000000000000000000000000000000081525081526020016040518060400160405280600481526020017f626c75650000000000000000000000000000000000000000000000000000000081525081526020016040518060400160405280600581526020017f677265656e000000000000000000000000000000000000000000000000000000815250815250600e9060066200092792919062000beb565b503480156200093557600080fd5b506040518060400160405280600981526020017f5371756172654e465400000000000000000000000000000000000000000000008152506040518060400160405280600681526020017f53515541524500000000000000000000000000000000000000000000000000008152508160009080519060200190620009ba92919062000af3565b508060019080519060200190620009d392919062000af3565b50505062000a216040518060400160405280601e81526020017f54686973206973206d79204e465420636f6e74726163742e2057686f6121000081525062000a2760201b620013191760201c565b62000e0c565b62000ac78160405160240162000a3e919062000d20565b6040516020818303038152906040527f41304fac000000000000000000000000000000000000000000000000000000007bffffffffffffffffffffffffffffffffffffffffffffffffffffffff19166020820180517bffffffffffffffffffffffffffffffffffffffffffffffffffffffff838183161783525050505062000aca60201b60201c565b50565b60008151905060006a636f6e736f6c652e6c6f679050602083016000808483855afa5050505050565b82805462000b019062000d96565b90600052602060002090601f01602090048101928262000b25576000855562000b71565b82601f1062000b4057805160ff191683800117855562000b71565b8280016001018555821562000b71579182015b8281111562000b7057825182559160200191906001019062000b53565b5b50905062000b80919062000c52565b5090565b82805482825590600052602060002090810192821562000bd8579160200282015b8281111562000bd757825182908051906020019062000bc692919062000af3565b509160200191906001019062000ba5565b5b50905062000be7919062000c71565b5090565b82805482825590600052602060002090810192821562000c3f579160200282015b8281111562000c3e57825182908051906020019062000c2d92919062000af3565b509160200191906001019062000c0c565b5b50905062000c4e919062000c71565b5090565b5b8082111562000c6d57600081600090555060010162000c53565b5090565b5b8082111562000c95576000818162000c8b919062000c99565b5060010162000c72565b5090565b50805462000ca79062000d96565b6000825580601f1062000cbb575062000cdc565b601f01602090049060005260206000209081019062000cdb919062000c52565b5b50565b600062000cec8262000d44565b62000cf8818562000d4f565b935062000d0a81856020860162000d60565b62000d158162000dfb565b840191505092915050565b6000602082019050818103600083015262000d3c818462000cdf565b905092915050565b600081519050919050565b600082825260208201905092915050565b60005b8381101562000d8057808201518184015260208101905062000d63565b8381111562000d90576000848401525b50505050565b6000600282049050600182168062000daf57607f821691505b6020821081141562000dc65762000dc562000dcc565b5b50919050565b7f4e487b7100000000000000000000000000000000000000000000000000000000600052602260045260246000fd5b6000601f19601f8301169050919050565b613e1f8062000e1c6000396000f3fe608060405234801561001057600080fd5b506004361061012c5760003560e01c80636352211e116100ad578063b88d4fde11610071578063b88d4fde14610369578063c575757a14610385578063c87b56dd146103b5578063de9d132f146103e5578063e985e9c5146103ef5761012c565b80636352211e1461029f57806370a08231146102cf57806395d89b41146102ff578063a22cb4651461031d578063b187301f146103395761012c565b806318160ddd116100f457806318160ddd146101e957806323b872dd146102075780632de38d681461022357806342842e0e14610253578063514dc8c61461026f5761012c565b806301ffc9a714610131578063060475901461016157806306fdde031461017f578063081812fc1461019d578063095ea7b3146101cd575b600080fd5b61014b600480360381019061014691906127e1565b61041f565b6040516101589190612f8f565b60405180910390f35b610169610501565b604051610176919061323a565b60405180910390f35b61018761055a565b6040516101949190612faa565b60405180910390f35b6101b760048036038101906101b29190612833565b6105ec565b6040516101c49190612eff565b60405180910390f35b6101e760048036038101906101e291906127a5565b610671565b005b6101f1610789565b6040516101fe919061323a565b60405180910390f35b610221600480360381019061021c919061269f565b61078f565b005b61023d60048036038101906102389190612833565b6107ef565b60405161024a9190612faa565b60405180910390f35b61026d6004803603810190610268919061269f565b61090d565b005b61028960048036038101906102849190612833565b61092d565b6040516102969190612faa565b60405180910390f35b6102b960048036038101906102b49190612833565b610a4b565b6040516102c69190612eff565b60405180910390f35b6102e960048036038101906102e4919061263a565b610afd565b6040516102f6919061323a565b60405180910390f35b610307610bb5565b6040516103149190612faa565b60405180910390f35b61033760048036038101906103329190612769565b610c47565b005b610353600480360381019061034e9190612833565b610c5d565b6040516103609190612faa565b60405180910390f35b610383600480360381019061037e91906126ee565b610d7b565b005b61039f600480360381019061039a9190612833565b610ddd565b6040516103ac9190612faa565b60405180910390f35b6103cf60048036038101906103ca9190612833565b610efb565b6040516103dc9190612faa565b60405180910390f35b6103ed61104d565b005b61040960048036038101906104049190612663565b611285565b6040516104169190612f8f565b60405180910390f35b60007f80ac58cd000000000000000000000000000000000000000000000000000000007bffffffffffffffffffffffffffffffffffffffffffffffffffffffff1916827bffffffffffffffffffffffffffffffffffffffffffffffffffffffff191614806104ea57507f5b5e139f000000000000000000000000000000000000000000000000000000007bffffffffffffffffffffffffffffffffffffffffffffffffffffffff1916827bffffffffffffffffffffffffffffffffffffffffffffffffffffffff1916145b806104fa57506104f9826113b2565b5b9050919050565b600061054b6040518060400160405280601681526020017f5765206861766520256420746f74616c204e4654732100000000000000000000815250610546600761141c565b61142a565b610555600761141c565b905090565b606060008054610569906134ce565b80601f0160208091040260200160405190810160405280929190818152602001828054610595906134ce565b80156105e25780601f106105b7576101008083540402835291602001916105e2565b820191906000526020600020905b8154815290600101906020018083116105c557829003601f168201915b5050505050905090565b60006105f7826114c6565b610636576040517f08c379a000000000000000000000000000000000000000000000000000000000815260040161062d906131ba565b60405180910390fd5b6004600083815260200190815260200160002060009054906101000a900473ffffffffffffffffffffffffffffffffffffffff169050919050565b600061067c82610a4b565b90508073ffffffffffffffffffffffffffffffffffffffff168373ffffffffffffffffffffffffffffffffffffffff1614156106ed576040517f08c379a00000000000000000000000000000000000000000000000000000000081526004016106e4906131fa565b60405180910390fd5b8073ffffffffffffffffffffffffffffffffffffffff1661070c611532565b73ffffffffffffffffffffffffffffffffffffffff16148061073b575061073a81610735611532565b611285565b5b61077a576040517f08c379a0000000000000000000000000000000000000000000000000000000008152600401610771906130fa565b60405180910390fd5b610784838361153a565b505050565b60085481565b6107a061079a611532565b826115f3565b6107df576040517f08c379a00000000000000000000000000000000000000000000000000000000081526004016107d69061321a565b60405180910390fd5b6107ea8383836116d1565b505050565b606060006108236107ff84611938565b60405160200161080f9190612e99565b604051602081830303815290604052611ae5565b9050600b8054905081610836919061357a565b9050600b8181548110610872577f4e487b7100000000000000000000000000000000000000000000000000000000600052603260045260246000fd5b906000526020600020018054610887906134ce565b80601f01602080910402602001604051908101604052809291908181526020018280546108b3906134ce565b80156109005780601f106108d557610100808354040283529160200191610900565b820191906000526020600020905b8154815290600101906020018083116108e357829003601f168201915b5050505050915050919050565b61092883838360405180602001604052806000815250610d7b565b505050565b6060600061096161093d84611938565b60405160200161094d9190612edd565b604051602081830303815290604052611ae5565b9050600e8054905081610974919061357a565b9050600e81815481106109b0577f4e487b7100000000000000000000000000000000000000000000000000000000600052603260045260246000fd5b9060005260206000200180546109c5906134ce565b80601f01602080910402602001604051908101604052809291908181526020018280546109f1906134ce565b8015610a3e5780601f10610a1357610100808354040283529160200191610a3e565b820191906000526020600020905b815481529060010190602001808311610a2157829003601f168201915b5050505050915050919050565b6000806002600084815260200190815260200160002060009054906101000a900473ffffffffffffffffffffffffffffffffffffffff169050600073ffffffffffffffffffffffffffffffffffffffff168173ffffffffffffffffffffffffffffffffffffffff161415610af4576040517f08c379a0000000000000000000000000000000000000000000000000000000008152600401610aeb9061313a565b60405180910390fd5b80915050919050565b60008073ffffffffffffffffffffffffffffffffffffffff168273ffffffffffffffffffffffffffffffffffffffff161415610b6e576040517f08c379a0000000000000000000000000000000000000000000000000000000008152600401610b659061311a565b60405180910390fd5b600360008373ffffffffffffffffffffffffffffffffffffffff1673ffffffffffffffffffffffffffffffffffffffff168152602001908152602001600020549050919050565b606060018054610bc4906134ce565b80601f0160208091040260200160405190810160405280929190818152602001828054610bf0906134ce565b8015610c3d5780601f10610c1257610100808354040283529160200191610c3d565b820191906000526020600020905b815481529060010190602001808311610c2057829003601f168201915b5050505050905090565b610c59610c52611532565b8383611b18565b5050565b60606000610c91610c6d84611938565b604051602001610c7d9190612e32565b604051602081830303815290604052611ae5565b9050600c8054905081610ca4919061357a565b9050600c8181548110610ce0577f4e487b7100000000000000000000000000000000000000000000000000000000600052603260045260246000fd5b906000526020600020018054610cf5906134ce565b80601f0160208091040260200160405190810160405280929190818152602001828054610d21906134ce565b8015610d6e5780601f10610d4357610100808354040283529160200191610d6e565b820191906000526020600020905b815481529060010190602001808311610d5157829003601f168201915b5050505050915050919050565b610d8c610d86611532565b836115f3565b610dcb576040517f08c379a0000000000000000000000000000000000000000000000000000000008152600401610dc29061321a565b60405180910390fd5b610dd784848484611c85565b50505050565b60606000610e11610ded84611938565b604051602001610dfd9190612e10565b604051602081830303815290604052611ae5565b9050600d8054905081610e24919061357a565b9050600d8181548110610e60577f4e487b7100000000000000000000000000000000000000000000000000000000600052603260045260246000fd5b906000526020600020018054610e75906134ce565b80601f0160208091040260200160405190810160405280929190818152602001828054610ea1906134ce565b8015610eee5780601f10610ec357610100808354040283529160200191610eee565b820191906000526020600020905b815481529060010190602001808311610ed157829003601f168201915b5050505050915050919050565b6060610f06826114c6565b610f45576040517f08c379a0000000000000000000000000000000000000000000000000000000008152600401610f3c9061319a565b60405180910390fd5b6000600660008481526020019081526020016000208054610f65906134ce565b80601f0160208091040260200160405190810160405280929190818152602001828054610f91906134ce565b8015610fde5780601f10610fb357610100808354040283529160200191610fde565b820191906000526020600020905b815481529060010190602001808311610fc157829003601f168201915b505050505090506000610fef611ce1565b9050600081511415611005578192505050611048565b60008251111561103a578082604051602001611022929190612d50565b60405160208183030381529060405292505050611048565b61104384611cf8565b925050505b919050565b6032600881905550600854611062600761141c565b1061106c57600080fd5b6000611078600761141c565b90506000611085826107ef565b9050600061109283610c5d565b9050600061109f84610ddd565b905060008383836040516020016110b893929190612d74565b604051602081830303815290604052905060006110d48661092d565b90506000600982600a856040516020016110f19493929190612da5565b604051602081830303815290604052905060006111368461111184611d9f565b604051602001611122929190612e54565b604051602081830303815290604052611d9f565b905060008160405160200161114b9190612ebb565b604051602081830303815290604052905061119a6040518060400160405280600c81526020017f0a2d2d2d2d2d2d2d2d2d2d2d0000000000000000000000000000000000000000815250611319565b6111c2816040516020016111ae9190612dee565b604051602081830303815290604052611319565b6112006040518060400160405280600c81526020017f0a2d2d2d2d2d2d2d2d2d2d2d0000000000000000000000000000000000000000815250611319565b61120a338a611f5d565b6112148982611f7b565b61121e6007611fef565b611241604051806060016040528060258152602001613d85602591398a33612005565b7febb98688741ffa4c7589bf325de30cf7becb63de567842e1ccdb6cb949fdc82c338a604051611272929190612f66565b60405180910390a1505050505050505050565b6000600560008473ffffffffffffffffffffffffffffffffffffffff1673ffffffffffffffffffffffffffffffffffffffff16815260200190815260200160002060008373ffffffffffffffffffffffffffffffffffffffff1673ffffffffffffffffffffffffffffffffffffffff16815260200190815260200160002060009054906101000a900460ff16905092915050565b6113af8160405160240161132d9190612faa565b6040516020818303038152906040527f41304fac000000000000000000000000000000000000000000000000000000007bffffffffffffffffffffffffffffffffffffffffffffffffffffffff19166020820180517bffffffffffffffffffffffffffffffffffffffffffffffffffffffff83818316178352505050506120a4565b50565b60007f01ffc9a7000000000000000000000000000000000000000000000000000000007bffffffffffffffffffffffffffffffffffffffffffffffffffffffff1916827bffffffffffffffffffffffffffffffffffffffffffffffffffffffff1916149050919050565b600081600001549050919050565b6114c28282604051602401611440929190612fcc565b6040516020818303038152906040527f9710a9d0000000000000000000000000000000000000000000000000000000007bffffffffffffffffffffffffffffffffffffffffffffffffffffffff19166020820180517bffffffffffffffffffffffffffffffffffffffffffffffffffffffff83818316178352505050506120a4565b5050565b60008073ffffffffffffffffffffffffffffffffffffffff166002600084815260200190815260200160002060009054906101000a900473ffffffffffffffffffffffffffffffffffffffff1673ffffffffffffffffffffffffffffffffffffffff1614159050919050565b600033905090565b816004600083815260200190815260200160002060006101000a81548173ffffffffffffffffffffffffffffffffffffffff021916908373ffffffffffffffffffffffffffffffffffffffff160217905550808273ffffffffffffffffffffffffffffffffffffffff166115ad83610a4b565b73ffffffffffffffffffffffffffffffffffffffff167f8c5be1e5ebec7d5bd14f71427d1e84f3dd0314c0f7b2291e5b200ac8c7c3b92560405160405180910390a45050565b60006115fe826114c6565b61163d576040517f08c379a0000000000000000000000000000000000000000000000000000000008152600401611634906130da565b60405180910390fd5b600061164883610a4b565b90508073ffffffffffffffffffffffffffffffffffffffff168473ffffffffffffffffffffffffffffffffffffffff16148061168a57506116898185611285565b5b806116c857508373ffffffffffffffffffffffffffffffffffffffff166116b0846105ec565b73ffffffffffffffffffffffffffffffffffffffff16145b91505092915050565b8273ffffffffffffffffffffffffffffffffffffffff166116f182610a4b565b73ffffffffffffffffffffffffffffffffffffffff1614611747576040517f08c379a000000000000000000000000000000000000000000000000000000000815260040161173e9061305a565b60405180910390fd5b600073ffffffffffffffffffffffffffffffffffffffff168273ffffffffffffffffffffffffffffffffffffffff1614156117b7576040517f08c379a00000000000000000000000000000000000000000000000000000000081526004016117ae9061309a565b60405180910390fd5b6117c28383836120cd565b6117cd60008261153a565b6001600360008573ffffffffffffffffffffffffffffffffffffffff1673ffffffffffffffffffffffffffffffffffffffff168152602001908152602001600020600082825461181d91906133e4565b925050819055506001600360008473ffffffffffffffffffffffffffffffffffffffff1673ffffffffffffffffffffffffffffffffffffffff16815260200190815260200160002060008282546118749190613303565b92505081905550816002600083815260200190815260200160002060006101000a81548173ffffffffffffffffffffffffffffffffffffffff021916908373ffffffffffffffffffffffffffffffffffffffff160217905550808273ffffffffffffffffffffffffffffffffffffffff168473ffffffffffffffffffffffffffffffffffffffff167fddf252ad1be2c89b69c2b068fc378daa952ba7f163c4a11628f55a4df523b3ef60405160405180910390a46119338383836120d2565b505050565b60606000821415611980576040518060400160405280600181526020017f30000000000000000000000000000000000000000000000000000000000000008152509050611ae0565b600082905060005b600082146119b257808061199b90613531565b915050600a826119ab9190613359565b9150611988565b60008167ffffffffffffffff8111156119f4577f4e487b7100000000000000000000000000000000000000000000000000000000600052604160045260246000fd5b6040519080825280601f01601f191660200182016040528015611a265781602001600182028036833780820191505090505b5090505b60008514611ad957600182611a3f91906133e4565b9150600a85611a4e919061357a565b6030611a5a9190613303565b60f81b818381518110611a96577f4e487b7100000000000000000000000000000000000000000000000000000000600052603260045260246000fd5b60200101907effffffffffffffffffffffffffffffffffffffffffffffffffffffffffffff1916908160001a905350600a85611ad29190613359565b9450611a2a565b8093505050505b919050565b600081604051602001611af89190612d39565b6040516020818303038152906040528051906020012060001c9050919050565b8173ffffffffffffffffffffffffffffffffffffffff168373ffffffffffffffffffffffffffffffffffffffff161415611b87576040517f08c379a0000000000000000000000000000000000000000000000000000000008152600401611b7e906130ba565b60405180910390fd5b80600560008573ffffffffffffffffffffffffffffffffffffffff1673ffffffffffffffffffffffffffffffffffffffff16815260200190815260200160002060008473ffffffffffffffffffffffffffffffffffffffff1673ffffffffffffffffffffffffffffffffffffffff16815260200190815260200160002060006101000a81548160ff0219169083151502179055508173ffffffffffffffffffffffffffffffffffffffff168373ffffffffffffffffffffffffffffffffffffffff167f17307eab39ab6107e8899845ad3d59bd9653f200f220920489ca2b5937696c3183604051611c789190612f8f565b60405180910390a3505050565b611c908484846116d1565b611c9c848484846120d7565b611cdb576040517f08c379a0000000000000000000000000000000000000000000000000000000008152600401611cd29061303a565b60405180910390fd5b50505050565b606060405180602001604052806000815250905090565b6060611d03826114c6565b611d42576040517f08c379a0000000000000000000000000000000000000000000000000000000008152600401611d39906131da565b60405180910390fd5b6000611d4c611ce1565b90506000815111611d6c5760405180602001604052806000815250611d97565b80611d7684611938565b604051602001611d87929190612d50565b6040516020818303038152906040525b915050919050565b60606000825190506000811415611dc85760405180602001604052806000815250915050611f58565b60006003600283611dd99190613303565b611de39190613359565b6004611def919061338a565b90506000602082611e009190613303565b67ffffffffffffffff811115611e3f577f4e487b7100000000000000000000000000000000000000000000000000000000600052604160045260246000fd5b6040519080825280601f01601f191660200182016040528015611e715781602001600182028036833780820191505090505b5090506000604051806060016040528060408152602001613daa604091399050600181016020830160005b86811015611f155760038101905062ffffff818a015116603f8160121c168401518060081b905060ff603f83600c1c1686015116810190508060081b905060ff603f8360061c1686015116810190508060081b905060ff603f831686015116810190508060e01b90508084526004840193505050611e9c565b506003860660018114611f2f5760028114611f3f57611f4a565b613d3d60f01b6002830352611f4a565b603d60f81b60018303525b508484525050819450505050505b919050565b611f7782826040518060200160405280600081525061226e565b5050565b611f84826114c6565b611fc3576040517f08c379a0000000000000000000000000000000000000000000000000000000008152600401611fba9061315a565b60405180910390fd5b80600660008481526020019081526020016000209080519060200190611fea9291906124c6565b505050565b6001816000016000828254019250508190555050565b61209f83838360405160240161201d93929190612ffc565b6040516020818303038152906040527fe3849f79000000000000000000000000000000000000000000000000000000007bffffffffffffffffffffffffffffffffffffffffffffffffffffffff19166020820180517bffffffffffffffffffffffffffffffffffffffffffffffffffffffff83818316178352505050506120a4565b505050565b60008151905060006a636f6e736f6c652e6c6f679050602083016000808483855afa5050505050565b505050565b505050565b60006120f88473ffffffffffffffffffffffffffffffffffffffff166122c9565b15612261578373ffffffffffffffffffffffffffffffffffffffff1663150b7a02612121611532565b8786866040518563ffffffff1660e01b81526004016121439493929190612f1a565b602060405180830381600087803b15801561215d57600080fd5b505af192505050801561218e57506040513d601f19601f8201168201806040525081019061218b919061280a565b60015b612211573d80600081146121be576040519150601f19603f3d011682016040523d82523d6000602084013e6121c3565b606091505b50600081511415612209576040517f08c379a00000000000000000000000000000000000000000000000000000000081526004016122009061303a565b60405180910390fd5b805181602001fd5b63150b7a0260e01b7bffffffffffffffffffffffffffffffffffffffffffffffffffffffff1916817bffffffffffffffffffffffffffffffffffffffffffffffffffffffff191614915050612266565b600190505b949350505050565b61227883836122ec565b61228560008484846120d7565b6122c4576040517f08c379a00000000000000000000000000000000000000000000000000000000081526004016122bb9061303a565b60405180910390fd5b505050565b6000808273ffffffffffffffffffffffffffffffffffffffff163b119050919050565b600073ffffffffffffffffffffffffffffffffffffffff168273ffffffffffffffffffffffffffffffffffffffff16141561235c576040517f08c379a00000000000000000000000000000000000000000000000000000000081526004016123539061317a565b60405180910390fd5b612365816114c6565b156123a5576040517f08c379a000000000000000000000000000000000000000000000000000000000815260040161239c9061307a565b60405180910390fd5b6123b1600083836120cd565b6001600360008473ffffffffffffffffffffffffffffffffffffffff1673ffffffffffffffffffffffffffffffffffffffff16815260200190815260200160002060008282546124019190613303565b92505081905550816002600083815260200190815260200160002060006101000a81548173ffffffffffffffffffffffffffffffffffffffff021916908373ffffffffffffffffffffffffffffffffffffffff160217905550808273ffffffffffffffffffffffffffffffffffffffff16600073ffffffffffffffffffffffffffffffffffffffff167fddf252ad1be2c89b69c2b068fc378daa952ba7f163c4a11628f55a4df523b3ef60405160405180910390a46124c2600083836120d2565b5050565b8280546124d2906134ce565b90600052602060002090601f0160209004810192826124f4576000855561253b565b82601f1061250d57805160ff191683800117855561253b565b8280016001018555821561253b579182015b8281111561253a57825182559160200191906001019061251f565b5b509050612548919061254c565b5090565b5b8082111561256557600081600090555060010161254d565b5090565b600061257c6125778461327a565b613255565b90508281526020810184848401111561259457600080fd5b61259f84828561348c565b509392505050565b6000813590506125b681613d28565b92915050565b6000813590506125cb81613d3f565b92915050565b6000813590506125e081613d56565b92915050565b6000815190506125f581613d56565b92915050565b600082601f83011261260c57600080fd5b813561261c848260208601612569565b91505092915050565b60008135905061263481613d6d565b92915050565b60006020828403121561264c57600080fd5b600061265a848285016125a7565b91505092915050565b6000806040838503121561267657600080fd5b6000612684858286016125a7565b9250506020612695858286016125a7565b9150509250929050565b6000806000606084860312156126b457600080fd5b60006126c2868287016125a7565b93505060206126d3868287016125a7565b92505060406126e486828701612625565b9150509250925092565b6000806000806080858703121561270457600080fd5b6000612712878288016125a7565b9450506020612723878288016125a7565b935050604061273487828801612625565b925050606085013567ffffffffffffffff81111561275157600080fd5b61275d878288016125fb565b91505092959194509250565b6000806040838503121561277c57600080fd5b600061278a858286016125a7565b925050602061279b858286016125bc565b9150509250929050565b600080604083850312156127b857600080fd5b60006127c6858286016125a7565b92505060206127d785828601612625565b9150509250929050565b6000602082840312156127f357600080fd5b6000612801848285016125d1565b91505092915050565b60006020828403121561281c57600080fd5b600061282a848285016125e6565b91505092915050565b60006020828403121561284557600080fd5b600061285384828501612625565b91505092915050565b61286581613418565b82525050565b6128748161342a565b82525050565b6000612885826132c0565b61288f81856132d6565b935061289f81856020860161349b565b6128a881613667565b840191505092915050565b60006128be826132cb565b6128c881856132e7565b93506128d881856020860161349b565b6128e181613667565b840191505092915050565b60006128f7826132cb565b61290181856132f8565b935061291181856020860161349b565b80840191505092915050565b6000815461292a816134ce565b61293481866132f8565b9450600182166000811461294f576001811461296057612993565b60ff19831686528186019350612993565b612969856132ab565b60005b8381101561298b5781548189015260018201915060208101905061296c565b838801955050505b50505092915050565b60006129a96025836132f8565b91506129b482613678565b602582019050919050565b60006129cc6032836132e7565b91506129d7826136c7565b604082019050919050565b60006129ef6025836132e7565b91506129fa82613716565b604082019050919050565b6000612a12601c836132e7565b9150612a1d82613765565b602082019050919050565b6000612a35600a836132f8565b9150612a408261378e565b600a82019050919050565b6000612a586024836132e7565b9150612a63826137b7565b604082019050919050565b6000612a7b6019836132e7565b9150612a8682613806565b602082019050919050565b6000612a9e6063836132f8565b9150612aa98261382f565b606382019050919050565b6000612ac1600b836132f8565b9150612acc826138ca565b600b82019050919050565b6000612ae4602c836132e7565b9150612aef826138f3565b604082019050919050565b6000612b07600d836132f8565b9150612b1282613942565b600d82019050919050565b6000612b2a6038836132e7565b9150612b358261396b565b604082019050919050565b6000612b4d602a836132e7565b9150612b58826139ba565b604082019050919050565b6000612b706029836132e7565b9150612b7b82613a09565b604082019050919050565b6000612b93602e836132e7565b9150612b9e82613a58565b604082019050919050565b6000612bb66002836132f8565b9150612bc182613aa7565b600282019050919050565b6000612bd96020836132e7565b9150612be482613ad0565b602082019050919050565b6000612bfc6031836132e7565b9150612c0782613af9565b604082019050919050565b6000612c1f602c836132e7565b9150612c2a82613b48565b604082019050919050565b6000612c42602f836132e7565b9150612c4d82613b97565b604082019050919050565b6000612c65600a836132f8565b9150612c7082613be6565b600a82019050919050565b6000612c886021836132e7565b9150612c9382613c0f565b604082019050919050565b6000612cab600a836132f8565b9150612cb682613c5e565b600a82019050919050565b6000612cce601d836132f8565b9150612cd982613c87565b601d82019050919050565b6000612cf16031836132e7565b9150612cfc82613cb0565b604082019050919050565b6000612d146005836132f8565b9150612d1f82613cff565b600582019050919050565b612d3381613482565b82525050565b6000612d4582846128ec565b915081905092915050565b6000612d5c82856128ec565b9150612d6882846128ec565b91508190509392505050565b6000612d8082866128ec565b9150612d8c82856128ec565b9150612d9882846128ec565b9150819050949350505050565b6000612db1828761291d565b9150612dbd82866128ec565b9150612dc9828561291d565b9150612dd582846128ec565b9150612de082612afa565b915081905095945050505050565b6000612df98261299c565b9150612e0582846128ec565b915081905092915050565b6000612e1b82612a28565b9150612e2782846128ec565b915081905092915050565b6000612e3d82612ab4565b9150612e4982846128ec565b915081905092915050565b6000612e5f82612c58565b9150612e6b82856128ec565b9150612e7682612a91565b9150612e8282846128ec565b9150612e8d82612ba9565b91508190509392505050565b6000612ea482612c9e565b9150612eb082846128ec565b915081905092915050565b6000612ec682612cc1565b9150612ed282846128ec565b915081905092915050565b6000612ee882612d07565b9150612ef482846128ec565b915081905092915050565b6000602082019050612f14600083018461285c565b92915050565b6000608082019050612f2f600083018761285c565b612f3c602083018661285c565b612f496040830185612d2a565b8181036060830152612f5b818461287a565b905095945050505050565b6000604082019050612f7b600083018561285c565b612f886020830184612d2a565b9392505050565b6000602082019050612fa4600083018461286b565b92915050565b60006020820190508181036000830152612fc481846128b3565b905092915050565b60006040820190508181036000830152612fe681856128b3565b9050612ff56020830184612d2a565b9392505050565b6000606082019050818103600083015261301681866128b3565b90506130256020830185612d2a565b613032604083018461285c565b949350505050565b60006020820190508181036000830152613053816129bf565b9050919050565b60006020820190508181036000830152613073816129e2565b9050919050565b6000602082019050818103600083015261309381612a05565b9050919050565b600060208201905081810360008301526130b381612a4b565b9050919050565b600060208201905081810360008301526130d381612a6e565b9050919050565b600060208201905081810360008301526130f381612ad7565b9050919050565b6000602082019050818103600083015261311381612b1d565b9050919050565b6000602082019050818103600083015261313381612b40565b9050919050565b6000602082019050818103600083015261315381612b63565b9050919050565b6000602082019050818103600083015261317381612b86565b9050919050565b6000602082019050818103600083015261319381612bcc565b9050919050565b600060208201905081810360008301526131b381612bef565b9050919050565b600060208201905081810360008301526131d381612c12565b9050919050565b600060208201905081810360008301526131f381612c35565b9050919050565b6000602082019050818103600083015261321381612c7b565b9050919050565b6000602082019050818103600083015261323381612ce4565b9050919050565b600060208201905061324f6000830184612d2a565b92915050565b600061325f613270565b905061326b8282613500565b919050565b6000604051905090565b600067ffffffffffffffff82111561329557613294613638565b5b61329e82613667565b9050602081019050919050565b60008190508160005260206000209050919050565b600081519050919050565b600081519050919050565b600082825260208201905092915050565b600082825260208201905092915050565b600081905092915050565b600061330e82613482565b915061331983613482565b9250827fffffffffffffffffffffffffffffffffffffffffffffffffffffffffffffffff0382111561334e5761334d6135ab565b5b828201905092915050565b600061336482613482565b915061336f83613482565b92508261337f5761337e6135da565b5b828204905092915050565b600061339582613482565b91506133a083613482565b9250817fffffffffffffffffffffffffffffffffffffffffffffffffffffffffffffffff04831182151516156133d9576133d86135ab565b5b828202905092915050565b60006133ef82613482565b91506133fa83613482565b92508282101561340d5761340c6135ab565b5b828203905092915050565b600061342382613462565b9050919050565b60008115159050919050565b60007fffffffff0000000000000000000000000000000000000000000000000000000082169050919050565b600073ffffffffffffffffffffffffffffffffffffffff82169050919050565b6000819050919050565b82818337600083830152505050565b60005b838110156134b957808201518184015260208101905061349e565b838111156134c8576000848401525b50505050565b600060028204905060018216806134e657607f821691505b602082108114156134fa576134f9613609565b5b50919050565b61350982613667565b810181811067ffffffffffffffff8211171561352857613527613638565b5b80604052505050565b600061353c82613482565b91507fffffffffffffffffffffffffffffffffffffffffffffffffffffffffffffffff82141561356f5761356e6135ab565b5b600182019050919050565b600061358582613482565b915061359083613482565b9250826135a05761359f6135da565b5b828206905092915050565b7f4e487b7100000000000000000000000000000000000000000000000000000000600052601160045260246000fd5b7f4e487b7100000000000000000000000000000000000000000000000000000000600052601260045260246000fd5b7f4e487b7100000000000000000000000000000000000000000000000000000000600052602260045260246000fd5b7f4e487b7100000000000000000000000000000000000000000000000000000000600052604160045260246000fd5b6000601f19601f8301169050919050565b7f68747470733a2f2f6e6674707265766965772e30786465762e636f6465732f3f60008201527f636f64653d000000000000000000000000000000000000000000000000000000602082015250565b7f4552433732313a207472616e7366657220746f206e6f6e20455243373231526560008201527f63656976657220696d706c656d656e7465720000000000000000000000000000602082015250565b7f4552433732313a207472616e736665722066726f6d20696e636f72726563742060008201527f6f776e6572000000000000000000000000000000000000000000000000000000602082015250565b7f4552433732313a20746f6b656e20616c7265616479206d696e74656400000000600082015250565b7f54484952445f574f524400000000000000000000000000000000000000000000600082015250565b7f4552433732313a207472616e7366657220746f20746865207a65726f2061646460008201527f7265737300000000000000000000000000000000000000000000000000000000602082015250565b7f4552433732313a20617070726f766520746f2063616c6c657200000000000000600082015250565b7f222c20226465736372697074696f6e223a20224120686967686c79206163636c60008201527f61696d656420636f6c6c656374696f6e206f6620737175617265732e222c202260208201527f696d616765223a2022646174613a696d6167652f7376672b786d6c3b6261736560408201527f36342c0000000000000000000000000000000000000000000000000000000000606082015250565b7f5345434f4e445f574f5244000000000000000000000000000000000000000000600082015250565b7f4552433732313a206f70657261746f7220717565727920666f72206e6f6e657860008201527f697374656e7420746f6b656e0000000000000000000000000000000000000000602082015250565b7f3c2f746578743e3c2f7376673e00000000000000000000000000000000000000600082015250565b7f4552433732313a20617070726f76652063616c6c6572206973206e6f74206f7760008201527f6e6572206e6f7220617070726f76656420666f7220616c6c0000000000000000602082015250565b7f4552433732313a2062616c616e636520717565727920666f7220746865207a6560008201527f726f206164647265737300000000000000000000000000000000000000000000602082015250565b7f4552433732313a206f776e657220717565727920666f72206e6f6e657869737460008201527f656e7420746f6b656e0000000000000000000000000000000000000000000000602082015250565b7f45524337323155524953746f726167653a2055524920736574206f66206e6f6e60008201527f6578697374656e7420746f6b656e000000000000000000000000000000000000602082015250565b7f227d000000000000000000000000000000000000000000000000000000000000600082015250565b7f4552433732313a206d696e7420746f20746865207a65726f2061646472657373600082015250565b7f45524337323155524953746f726167653a2055524920717565727920666f722060008201527f6e6f6e6578697374656e7420746f6b656e000000000000000000000000000000602082015250565b7f4552433732313a20617070726f76656420717565727920666f72206e6f6e657860008201527f697374656e7420746f6b656e0000000000000000000000000000000000000000602082015250565b7f4552433732314d657461646174613a2055524920717565727920666f72206e6f60008201527f6e6578697374656e7420746f6b656e0000000000000000000000000000000000602082015250565b7f7b226e616d65223a202200000000000000000000000000000000000000000000600082015250565b7f4552433732313a20617070726f76616c20746f2063757272656e74206f776e6560008201527f7200000000000000000000000000000000000000000000000000000000000000602082015250565b7f46495253545f574f524400000000000000000000000000000000000000000000600082015250565b7f646174613a6170706c69636174696f6e2f6a736f6e3b6261736536342c000000600082015250565b7f4552433732313a207472616e736665722063616c6c6572206973206e6f74206f60008201527f776e6572206e6f7220617070726f766564000000000000000000000000000000602082015250565b7f434f4c4f52000000000000000000000000000000000000000000000000000000600082015250565b613d3181613418565b8114613d3c57600080fd5b50565b613d488161342a565b8114613d5357600080fd5b50565b613d5f81613436565b8114613d6a57600080fd5b50565b613d7681613482565b8114613d8157600080fd5b5056fe416e204e465420772f20494420257320686173206265656e206d696e74656420746f2025734142434445464748494a4b4c4d4e4f505152535455565758595a6162636465666768696a6b6c6d6e6f707172737475767778797a303132333435363738392b2fa264697066735822122094d94b1f2986b7f251320f84d4b39917501c321912344aa69a96e1b1c3e02ad164736f6c634300080100333c73766720786d6c6e733d27687474703a2f2f7777772e77332e6f72672f323030302f73766727207072657365727665417370656374526174696f3d27784d696e594d696e206d656574272076696577426f783d273020302033353020333530273e3c7374796c653e2e62617365207b2066696c6c3a2077686974653b20666f6e742d66616d696c793a2073657269663b20666f6e742d73697a653a20323470783b207d3c2f7374796c653e3c726563742077696474683d273130302527206865696768743d2731303025272066696c6c3d27272f3e3c7465787420783d273530252720793d273530252720636c6173733d27626173652720646f6d696e616e742d626173656c696e653d276d6964646c652720746578742d616e63686f723d276d6964646c65273e",
  "linkReferences": {},
  "deployedLinkReferences": {}
}